:020000040800F2
:100000000080012021270008491500084B15000831
:100010004D1500084F15000851150008000000009C
:100020000000000000000000000000005315000860
:100030005515000800000000571500085915000864
:100040007127000871270008712700087127000830
:100050007127000871270008712700087127000820
:100060007127000871270008712700087127000810
:100070007127000871270008712700087127000800
:100080007127000871270008712700080000000090
:1000900000000000000000000000000071270008C0
:1000A0006115000871150008712700087127000804
:1000B00071270008712700087127000871270008C0
:1000C00071270008712700087127000871270008B0
:1000D0007127000871270008712700080000000040
:1000E000991500087127000871270008000000001A
:1000F0000000000000000000000000007127000860
:10010000000000007127000871270008712700080F
:1001100000000000000000000000000000000000DF
:10012000712700087127000871270008712700084F
:10013000712700080000000000000000000000001F
:10014000000000000000000000000000712700080F
:10015000712700087127000871270008712700081F
:10016000712700087127000800000000000000004F
:10017000000000000000000000000000000000007F
:1001800000000000712700080000000000000000CF
:0401900071270008CB
:1001A00010B5054C237833B9044B13B10448AFF3B1
:1001B00000800123237010BDDC010020000000003E
:1001C0005448000808B5034B1BB103490348AFF37B
:1001D000008008BD00000000E00100205448000835
:1001E00081F0004102E000BF83F0004330B54FEAE8
:1001F00041044FEA430594EA050F08BF90EA020F55
:100200001FBF54EA000C55EA020C7FEA645C7FEAE7
:10021000655C00F0E2804FEA5454D4EB5555B8BF0A
:100220006D420CDD2C4480EA020281EA030382EA7B
:10023000000083EA010180EA020281EA0303362D0D
:1002400088BF30BD11F0004F4FEA01314FF4801CE0
:100250004CEA113102D0404261EB410113F0004FF2
:100260004FEA03334CEA133302D0524263EB4303A9
:1002700094EA050F00F0A780A4F10104D5F1200E47
:100280000DDB02FA0EFC22FA05F2801841F10001A2
:1002900003FA0EF2801843FA05F359410EE0A5F176
:1002A00020050EF1200E012A03FA0EFC28BF4CF0A7
:1002B000020C43FA05F3C01851EBE37101F000455D
:1002C00007D54FF0000EDCF1000C7EEB00006EEB6A
:1002D0000101B1F5801F1BD3B1F5001F0CD34908F4
:1002E0005FEA30004FEA3C0C04F101044FEA44524B
:1002F00012F5800F80F09A80BCF1004F08BF5FEAD2
:10030000500C50F1000041EB045141EA050130BDB1
:100310005FEA4C0C404141EB010111F4801FA4F154
:100320000104E9D191F0000F04BF01460020B1FAA9
:1003300081F308BF2033A3F10B03B3F120020CDAE1
:100340000C3208DD02F1140CC2F10C0201FA0CF0BF
:1003500021FA02F10CE002F11402D8BFC2F1200C24
:1003600001FA02F120FA0CFCDCBF41EA0C019040DA
:10037000E41AA2BF01EB0451294330BD6FEA040423
:100380001F3C1CDA0C340EDC04F11404C4F120020E
:1003900020FA04F001FA02F340EA030021FA04F320
:1003A00045EA030130BDC4F10C04C4F1200220FA77
:1003B00002F001FA04F340EA0300294630BD21FAB5
:1003C00004F0294630BD94F0000F83F4801306BF7B
:1003D00081F480110134013D4EE77FEA645C18BF6F
:1003E0007FEA655C29D094EA050F08BF90EA020F06
:1003F00005D054EA000C04BF1946104630BD91EAFE
:10040000030F1EBF0021002030BD5FEA545C05D100
:100410004000494128BF41F0004130BD14F580043F
:100420003CBF01F5801130BD01F0004545F0FE41B3
:1004300041F470014FF0000030BD7FEA645C1ABFE8
:10044000194610467FEA655C1CBF0B46024650EA1F
:10045000013406BF52EA033591EA030F41F400214B
:1004600030BD00BF90F0000F04BF0021704730B5D1
:100470004FF4806404F132044FF000054FF00001A6
:1004800050E700BF90F0000F04BF0021704730B567
:100490004FF4806404F1320410F0004548BF40423C
:1004A0004FF000013EE700BF42004FEAE2014FEA91
:1004B00031014FEA02701FBF12F07F4393F07F4F6C
:1004C00081F06051704732F07F4208BF704793F06F
:1004D0007F4F04BF41F40021704730B54FF4607482
:1004E00001F0004521F000411CE700BF50EA010285
:1004F00008BF704730B54FF000050AE050EA01022E
:1005000008BF704730B511F0004502D5404261EB9D
:1005100041014FF4806404F132045FEA915C3FF4DE
:10052000D8AE4FF003025FEADC0C18BF03325FEA7B
:10053000DC0C18BF033202EBDC02C2F1200300FA2C
:1005400003FC20FA02F001FA03FE40EA0E0021FA51
:1005500002F11444BDE600BF53B94AB9002908BFEF
:1005600000281CBF4FF0FF314FF0FF3000F072B990
:10057000ADF1080C6DE904CE00F006F8DDF804E0FA
:10058000DDE9022304B070472DE9F047089E0446D8
:100590008846002B4BD18A42154667D9B2FA82F2BF
:1005A0004AB1C2F1200701FA02F320FA07F7954099
:1005B00047EA030894404FEA154E230CB8FBFEF7B8
:1005C0001FFA85FC0EFB178843EA084307FB0CF172
:1005D000994209D9EB1807F1FF3080F01B8199424D
:1005E00040F21881023F2B445B1AA4B2B3FBFEF029
:1005F0000EFB103344EA034400FB0CFCA44509D96C
:100600002C1900F1FF3380F00781A44540F20481EA
:1006100002382C4440EA0740A4EB0C0400271EB12A
:10062000D4400023C6E900433946BDE8F0878B4239
:1006300009D9002E00F0EB800027C6E900013846FA
:100640003946BDE8F087B3FA83F7002F47D18B42D4
:1006500002D3824200F2FA80841A61EB0303012084
:100660009846002EE0D0C6E90048DDE702B9FFDE7B
:10067000B2FA82F2002A40F08F80491B4FEA154EF1
:100680001FFA85F80127B1FBFEFC230C0EFB1C11A1
:1006900043EA014308FB0CF1994207D9EB180CF12E
:1006A000FF3002D2994200F2CD808446591AA3B29B
:1006B000B1FBFEF00EFB101443EA044408FB00F803
:1006C000A04507D92C1900F1FF3302D2A04500F252
:1006D000B6801846A4EB080440EA0C409FE7C7F137
:1006E000200CBB4022FA0CFE4EEA030E01FA07F47E
:1006F00020FA0CF521FA0CF34FEA1E482543B3FB10
:10070000F8F92C0C08FB19331FFA8EFA44EA03435C
:1007100009FB0AF49C4202FA07F200FA07F10BD92E
:100720001EEB030309F1FF3080F087809C4240F20A
:100730008480A9F1020973441B1BADB2B3FBF8F02E
:1007400008FB103345EA034400FB0AFAA24508D926
:100750001EEB040400F1FF336BD2A24569D90238C5
:10076000744440EA0940A0FB0289A4EB0A044C450A
:10077000C2464B4654D351D0002E69D0B1EB0A0586
:1007800064EB030404FA0CFCFD40FC404CEA050554
:10079000C6E90054002747E7C2F1200320FA03F717
:1007A000954001FA02F021FA03F34FEA154E38435F
:1007B000010CB3FBFEF71FFA85F80EFB173341EA75
:1007C000034107FB08F38B4204FA02F407D96918C6
:1007D00007F1FF3C2FD28B422DD9023F2944CB1A7F
:1007E00081B2B3FBFEF00EFB103341EA034100FB84
:1007F00008F38B4207D9691800F1FF3C17D28B42EE
:1008000015D902382944C91A40EA07473BE7374659
:10081000304609E70746E7E61846FBE64145ABD216
:10082000B8EB020A69EB0E0201381346A4E76046F2
:10083000E9E7184695E76746D1E781467CE7023845
:100840002C4447E7ACF1020C2B442FE7384608E76D
:100850003746E9E6704700BF034613F8012B002A2C
:10086000FBD1181A0138704700000000000000009A
:1008700001F0FF01102A2BDB10F0070F08D010F851
:10088000013B013A8B422DD010F0070F42B3F6D155
:10089000F0B441EA012141EA014122F007047FF06E
:1008A00000070023F0E80256083C85EA010586EAC5
:1008B000010685FA47F5A3FA87F586FA47F6A5FA01
:1008C00087F68EB9EED1F0BC01F0FF0102F007020D
:1008D00032B110F8013B013A83EA010313B1F8D1B8
:1008E0000020704701387047002D06BF3546033899
:1008F000073815F0010F07D1013015F4807F02BFD2
:10090000013015F4C03F0130F0BC0138704700BF22
:1009100070B54FF0FF0C4CF4E06C1CEA11541DBF95
:100920001CEA135594EA0C0F95EA0C0F00F0DEF860
:100930002C4481EA030621EA4C5123EA4C5350EA45
:10094000013518BF52EA033541F4801143F4801396
:1009500038D0A0FB02CE4FF00005E1FB02E506F027
:100960000042E0FB03E54FF00006E1FB03569CF07C
:10097000000F18BF4EF0010EA4F1FF04B6F5007F82
:1009800064F5407404D25FEA4E0E6D4146EB0606F4
:1009900042EAC62141EA55514FEAC52040EA5E507D
:1009A0004FEACE2EB4F1FD0C88BFBCF5E06F1ED827
:1009B000BEF1004F08BF5FEA500E50F1000041EB5E
:1009C000045170BD06F0004646EA010140EA02000B
:1009D00081EA0301B4EB5C04C2BFD4EB0C0541EA2D
:1009E000045170BD41F480114FF0000E013C00F342
:1009F000AB8014F1360FDEBF002001F0004170BD66
:100A0000C4F10004203C35DA0C341BDC04F114047E
:100A1000C4F1200500FA05F320FA04F001FA05F20A
:100A200040EA020001F0004221F0004110EBD370D7
:100A300021FA04F642EB06015EEA430E08BF20EA03
:100A4000D37070BDC4F10C04C4F1200500FA04F3A6
:100A500020FA05F001FA04F240EA020001F0004138
:100A600010EBD37041F100015EEA430E08BF20EAAB
:100A7000D37070BDC4F1200500FA05F24EEA020EF3
:100A800020FA04F301FA05F243EA020321FA04F022
:100A900001F0004121FA04F220EA020000EBD370D9
:100AA0005EEA430E08BF20EAD37070BD94F0000FD9
:100AB0000FD101F00046400041EB010111F4801F0D
:100AC00008BF013CF7D041EA060195F0000F18BFBE
:100AD000704703F00046520043EB030313F4801FFA
:100AE00008BF013DF7D043EA0603704794EA0C0FB4
:100AF0000CEA135518BF95EA0C0F0CD050EA4106CA
:100B000018BF52EA4306D1D181EA030101F0004146
:100B10004FF0000070BD50EA410606BF104619466E
:100B200052EA430619D094EA0C0F02D150EA01367A
:100B300013D195EA0C0F05D152EA03361CBF1046BB
:100B400019460AD181EA030101F0004141F0FE415A
:100B500041F470014FF0000070BD41F0FE4141F4DE
:100B6000780170BD70B54FF0FF0C4CF4E06C1CEADE
:100B700011541DBF1CEA135594EA0C0F95EA0C0F93
:100B800000F0A7F8A4EB050481EA030E52EA03354E
:100B90004FEA013100F088804FEA03334FF080556F
:100BA00045EA131343EA12634FEA022245EA11159C
:100BB00045EA10654FEA00260EF000419D4208BF4D
:100BC000964244F1FD0404F5407402D25B084FEAFA
:100BD0003202B61A65EB03055B084FEA32024FF4A6
:100BE00080104FF4002CB6EB020E75EB030E22BF03
:100BF000B61A754640EA0C005B084FEA3202B6EBC3
:100C0000020E75EB030E22BFB61A754640EA5C0071
:100C10005B084FEA3202B6EB020E75EB030E22BF01
:100C2000B61A754640EA9C005B084FEA3202B6EB02
:100C3000020E75EB030E22BFB61A754640EADC00C1
:100C400055EA060E18D04FEA051545EA16754FEA23
:100C500006164FEAC30343EA52734FEAC2025FEA41
:100C60001C1CC0D111F4801F0BD141EA00014FF0D0
:100C700000004FF0004CB6E711F4801F04BF0143A1
:100C80000020B4F1FD0C88BFBCF5E06F3FF6AFAEBD
:100C9000B5EB030C04BFB6EB020C5FEA500C50F14D
:100CA000000041EB045170BD0EF0004E4EEA1131D0
:100CB00014EB5C04C2BFD4EB0C0541EA045170BDD7
:100CC00041F480114FF0000E013C90E645EA060E1B
:100CD0008DE60CEA135594EA0C0F08BF95EA0C0F49
:100CE0003FF43BAF94EA0C0F0AD150EA01347FF491
:100CF00034AF95EA0C0F7FF425AF104619462CE768
:100D000095EA0C0F06D152EA03353FF4FDAE1046CA
:100D1000194622E750EA410618BF52EA43067FF41B
:100D2000C5AE50EA41047FF40DAF52EA43057FF4AB
:100D3000EBAE12E74FF0FF3C06E000BF4FF0010CB6
:100D400002E000BF4FF0010C4DF804CD4FEA410C1A
:100D50007FEA6C5C4FEA430C18BF7FEA6C5C1BD0E7
:100D600001B050EA410C0CBF52EA430C91EA030F68
:100D700002BF90EA020F0020704710F1000F91EAC5
:100D8000030F58BF994208BF90422CBFD8176FEA93
:100D9000E37040F0010070474FEA410C7FEA6C5C61
:100DA00002D150EA013C07D14FEA430C7FEA6C5C68
:100DB000D6D152EA033CD3D05DF8040B704700BF94
:100DC0008446104662468C461946634600E000BFE2
:100DD00001B5FFF7B7FF002848BF10F1000F01BDB4
:100DE0004DF808EDFFF7F4FF0CBF012000205DF87F
:100DF00008FB00BF4DF808EDFFF7EAFF34BF012004
:100E000000205DF808FB00BF4DF808EDFFF7E0FF9C
:100E100094BF012000205DF808FB00BF4DF808EDED
:100E2000FFF7CEFF94BF012000205DF808FB00BF54
:100E30004DF808EDFFF7C4FF34BF012000205DF836
:100E400008FB00BF4FEA410C7FEA6C5C02D150EA1C
:100E5000013C0AD14FEA430C7FEA6C5C02D152EAB2
:100E6000033C02D14FF0000070474FF00100704783
:100E70004FEA410212F5001215D211D56FF47873C2
:100E8000B3EB625212D94FEAC12343F0004343EA65
:100E9000505311F0004F23FA02F018BF4042704740
:100EA0004FF00000704750EA013005D111F00040CA
:100EB00008BF6FF0004070474FF00000704700BF60
:100EC000F8B505460E4617461A468189806800F037
:100ED00035FD00240EE02B686968221D46FA02F2F7
:100EE00002F0010231F8141053F8240000F026FD3E
:100EF0000134E4B2032CEED90122A98A286900F05A
:100F00001DFD384600F0CAFB0022A98A286900F0BE
:100F100015FD384600F0C2FB00240DE02B6869681F
:100F200046FA04F202F0010231F8141053F82400DA
:100F300000F004FD0134E4B2032CEFD90122A98AA8
:100F4000286900F0FBFC384600F0A8FB0022A98AC3
:100F5000286900F0F3FC384600F0A0FBF8BD10B59E
:100F60000446002302220121FFF7AAFF0020A075FA
:100F7000E0750CE000EB80018B002344134420213A
:100F800019760132D2B2132AF4D90130C0B2032843
:100F900001D80022F7E710BD30B4BDF810508582AB
:100FA000039D0561BDF80850858183604260016042
:100FB00030BC704710B504460020A075E0750CE009
:100FC00000EB80018B002344134420211976013269
:100FD000D2B2132AF4D90130C0B2032801D80022BA
:100FE000F7E70F2000F05AFB0023052233212046AB
:100FF000FFF766FF0023052232212046FFF760FF3E
:101000000023012228212046FFF75AFF0023012256
:1010100008212046FFF754FF002302220121204629
:10102000FFF74EFF002301220F212046FFF748FF64
:1010300010BD000038B505460C464B78084AD15C17
:101040002378194449B261F07F0100230122C9B21B
:10105000FFF736FF2378AB756378EB7538BD00BFBB
:101060007048000800B583B0837DC27D8DF80520EF
:1010700009BBE3B913238DF80430032A13D8DFE842
:1010800002F002060A0E03238DF8053018E0002353
:101090008DF8053014E001238DF8053010E00223AF
:1010A0008DF805300CE000238DF8053008E0013B99
:1010B0008DF8043004E0132B08D001338DF8043090
:1010C00001A9FFF7B7FF03B05DF804FB00238DF81B
:1010D0000430032A13D8DFE802F002060A0E0123C7
:1010E0008DF80530ECE702238DF80530E8E703239F
:1010F0008DF80530E4E700238DF80530E0E70023A4
:101100008DF80530DCE770B505460E46002414E086
:1011100001231A46315D2846FFF7D2FEEA7DA87DFD
:10112000315D02EB820293002B44034419760121C6
:101130002846FFF797FF0134E4B23046FFF78CFBF7
:101140008442E5D370BD000010B584B004460A4661
:101150000449684601F0A8FF69462046FFF7D3FF1F
:1011600004B010BDB4480008F0B58BB0002405945D
:10117000069407940894099401942F4B1A6B42F03B
:1011800004021A631A6B02F004020192019A02949B
:101190001A6B42F080021A631A6B02F0800202920C
:1011A000029A03941A6B42F001021A631A6B02F05E
:1011B00001020392039A04941A6B42F002021A632A
:1011C0001B6B03F002030493049B1C4F22464FF455
:1011D000F071384600F0B2FB194D22464FF486619B
:1011E000284600F0ABFB4FF400530593154B0693D4
:1011F000079405A9144800F0CFFA4FF4F073059353
:10120000012606960794089405A9384600F0C4FA0A
:101210004FF48663059306960794089405A928461B
:1012200000F0BAFA22462146282000F05DFA282074
:1012300000F08EFA0BB0F0BD003802400000024012
:1012400000040240000021100008024030B587B0C1
:1012500000240294039404940594009401940F4D87
:101260000F4B2B6040F28F136B60AC6042F20F7338
:10127000EB602C616C61AC61284601F045F84FF4DD
:101280008053029302A9284601F063F80094019468
:101290006946284601F0CAF807B030BD0C020020AC
:1012A0000000014008B50848084B03604FF4E133E3
:1012B000436000238360C36003610C224261836149
:1012C000C36101F0FDF908BD4C020020004400405C
:1012D00030B595B03022002108A801F080FA002432
:1012E0000394049405940694079401941C4B1A6C7F
:1012F00042F080521A641B6C03F080530193019BEF
:101300000294184A136823F4404343F400431360E3
:10131000136803F440430293029B022508950123BE
:101320000B9310230C930E950F9410934FF480732E
:101330001193042312930723139308A800F01CFBB6
:101340000F2303930495A02305934FF48053069332
:101350000794214603A800F071FD15B030BD00BF11
:10136000003802400070004030B5A7B000F06AF9C4
:10137000FFF7AEFFFFF7F8FEFFF768FFFFF792FFFA
:10138000274C22AD94E80F0085E80F0020AA04F155
:10139000100393E8030082E80300224B80210291AE
:1013A000019340210091294606A8FFF7F5FD06A804
:1013B000FFF700FE238BADF8143001241FE006A8D0
:1013C000FFF7CDFD184906A8FFF79DFE05A906A861
:1013D000FFF730FE154B5988490806A8FFF7B4FE01
:1013E000134906A8FFF78FFE124C204600F03DFE81
:1013F000204600F062FE01240C4B002119700B4BBB
:101400001B78002BFBD0002CD9D00024074B5C802C
:10141000084D284600F017FE284600F03DFEEBE799
:101420007848000800000240B8480008F801002091
:10143000CC4800080C020020B0F5005F00D07047D7
:10144000014B01221A70FAE7F801002000B583B0C1
:10145000002100910C4B5A6C42F480425A645A6C41
:1014600002F480420092009A01911A6C42F080527C
:101470001A641B6C03F080530193019B072000F05A
:1014800021F903B05DF804FB003802400268124BFA
:101490009A4200D0704710B582B00024019403F541
:1014A0009C335A6C42F001025A645B6C03F00103F6
:1014B0000193019B22462146182000F015F91820BF
:1014C00000F046F922462146192000F00DF91920B6
:1014D00000F03EF902B010BD0000014000B589B037
:1014E0000023039304930593069307930268144B18
:1014F0009A4202D009B05DF804FB0021019103F586
:10150000FA331A6C42F400321A641A6C02F4003294
:101510000192019A02911A6B42F001021A631B6B4D
:1015200003F001030293029B0C2303930223049311
:101530000723079303A9034800F02EF9DAE700BF59
:1015400000440040000002407047FEE7FEE7FEE76F
:10155000FEE770477047704708B500F08DF808BD8A
:1015600008B5024800F0C4FD08BD00BF0C02002011
:1015700008B52021054800F0E7F9054A1388013332
:101580001380044800F0B4FD08BD00BF0000024015
:10159000FA0100200C02002008B54FF4005000F0C2
:1015A000DDF908BD08B503460B4A126842B10A4A84
:1015B000106803446A46934206D8074A136008BD80
:1015C000054A06491160F2E701F0D4F80C230360E4
:1015D0004FF0FF30F3E700BFFC010020980200202D
:1015E000054BD3F8882042F47002C3F888204FF0EE
:1015F00000629A60704700BF00ED00E010B504463D
:101600000E4B18784FF47A73B3FBF0F30C4A106862
:10161000B0FBF3F000F0AAF868B90F2C01D9012053
:101620000AE0002221464FF0FF3000F05DF8034B46
:101630005C60002000E0012010BD00BF040000201D
:101640000000002008B50B4B1A6842F400721A60C3
:101650001A6842F480621A601A6842F480721A6052
:10166000032000F02FF80020FFF7C8FFFFF7EEFE81
:10167000002008BD003C0240034A1168034B1B7860
:101680000B441360704700BF8C0200200400002050
:10169000014B1868704700BF8C02002038B5044623
:1016A000FFF7F6FF0546B4F1FF3F02D0044B1B786D
:1016B0001C44FFF7EDFF401BA042FAD338BD00BF2A
:1016C00004000020074AD36823F4E0631B041B0CCA
:1016D000000200F4E060184340F0BF6040F40030C6
:1016E000D060704700ED00E030B4174BDB68C3F307
:1016F0000223C3F10704042C28BF04241D1D062D5A
:1017000018D9033B4FF0FF3505FA04F421EA040130
:10171000994005FA03F322EA0303194300280BDB7F
:101720000901C9B200F1604000F5614080F8001382
:1017300030BC70470023E5E700F00F000901C9B293
:10174000024B1954F4E700BF00ED00E014ED00E097
:10175000002807DB00F01F02400901239340024AE2
:1017600042F82030704700BF00E100E00138B0F1DE
:10177000807F0AD2064B5860064AF02182F8231077
:101780000020986007221A6070470120704700BF50
:1017900010E000E000ED00E000230F2B00F2C58018
:1017A000F0B583B039E0042200E00022AA403A43B9
:1017B00002345E4D45F824205D4A1468F24302EA83
:1017C00004054F6817F4803F01D046EA0405584CE1
:1017D0002560646802EA04054F6817F4003F01D0F1
:1017E00046EA0405524C6560A46802EA04054F68A5
:1017F00017F4801F01D046EA04054D4CA560E4684B
:1018000022404D6815F4001F01D046EA0402484CFE
:10181000E26001330F2B00F2868001229A400C68AF
:1018200004EA0206B242F4D14C68651E012D03D9C8
:10183000112C01D0122C12D185685F000324BC400A
:1018400025EA0405CC68BC402C438460456825EA41
:1018500002054C68C4F300129A402A434260C468EF
:101860005F000322BA40D24314408D68BD40254337
:10187000C5604C68022C01D0122C13D1DD0808354C
:1018800050F825E003F007044FEA840C0F2404FA13
:101890000CF42EEA040E0C6904FA0CF444EA0E046B
:1018A00040F82540046822404C6804F00304BC4022
:1018B000224302604A6812F0805FAAD0002201929F
:1018C0001C4A546C44F480445464526C02F48042C8
:1018D0000192019A9C08A51C144A52F8257003F045
:1018E000030295000F22AA4027EA0207124A9042FB
:1018F0003FF45BAF02F5806290420ED002F5806249
:1019000090420CD002F5806290420AD002F58062CB
:1019100090423FF448AF072248E7012246E70222FF
:1019200044E7032242E703B0F0BD704700380140AE
:10193000003C0140003802400000024012B9090496
:101940008161704781617047436931EA030301D0C7
:1019500081617047090481617047000008B5054B3B
:101960005B69034200D108BD024B5861FFF764FD7B
:10197000F9E700BF003C0140002800F0E48170B5A9
:1019800082B00446036813F0010F3BD0A74B9B685D
:1019900003F00C03042B2CD0A44B9B6803F00C0326
:1019A000082B21D06368B3F5803F4FD0B3F5A02F4B
:1019B00052D09E4B1A6822F480321A601A6822F4C0
:1019C00080221A606368002B50D0FFF761FE054645
:1019D000964B1B6813F4003F14D1FFF759FE401BD0
:1019E0006428F5D90320B3E1904B5B6813F4800FB2
:1019F000D8D08E4B1B6813F4003F03D06368002BD4
:101A000000F0A381236813F0020F55D0874B9B6829
:101A100013F00C0F3ED0854B9B6803F00C03082B92
:101A200033D0E368002B68D0814B01221A60FFF7A6
:101A30002FFE05467D4B1B6813F0020F54D1FFF7B4
:101A400027FE401B0228F5D9032081E1774A13685D
:101A500043F480331360B5E7744B1A6842F4802274
:101A60001A601A6842F480321A60ABE7FFF710FE82
:101A700005466E4B1B6813F4003FC3D0FFF708FE0A
:101A8000401B6428F5D9032062E1684B5B6813F4BE
:101A9000800FC6D1654B1B6813F0020F04D0E368BA
:101AA000012B01D0012053E1604A136823F0F803B1
:101AB000216943EAC1031360236813F0080F40D083
:101AC000636963B35B4B01221A60FFF7E1FD0546D2
:101AD000564B5B6F13F0020F33D1FFF7D9FD401B5C
:101AE0000228F5D9032033E1504A136823F0F803A4
:101AF000216943EAC1031360DEE74D4B00221A60FF
:101B0000FFF7C6FD0546494B1B6813F0020FD3D003
:101B1000FFF7BEFD401B0228F5D9032018E1454B15
:101B200000221A60FFF7B4FD0546404B5B6F13F0CF
:101B3000020F06D0FFF7ACFD401B0228F5D90320A9
:101B400006E1236813F0040F79D0384B1B6C13F0B7
:101B5000805F33D100230193344B1A6C42F08052E2
:101B60001A641B6C03F080530193019B0125324BD7
:101B70001B6813F4807F23D0A368012B34D0052B7E
:101B800038D02A4B1A6F22F001021A671A6F22F01E
:101B900004021A67A368002B36D0FFF779FD0646CA
:101BA000224B1B6F13F0020F48D1FFF771FD801B12
:101BB00041F288339842F3D90320C9E00025D6E7E3
:101BC0001D4A136843F480731360FFF761FD0646F6
:101BD000194B1B6813F4807FCED1FFF759FD801B92
:101BE0000228F5D90320B3E0104A136F43F0010334
:101BF0001367CFE70D4B1A6F42F004021A671A6F92
:101C000042F001021A67C5E7FFF742FD0646074B9F
:101C10001B6F13F0020F11D0FFF73AFD801B41F24A
:101C200088339842F3D9032092E000BF0038024085
:101C300000004742800E474200700040EDB9A369A2
:101C4000002B00F08480454A926802F00C02082ABA
:101C500051D0022B17D0424B00221A60FFF718FD1B
:101C600004463E4B1B6813F0007F42D0FFF710FD87
:101C7000001B0228F5D903206AE0384A136C23F0D0
:101C800080531364DBE7364B00221A60FFF700FD38
:101C90000546324B1B6813F0007F06D0FFF7F8FCB7
:101CA000401B0228F5D9032052E0E369226A13435E
:101CB000626A43EA8213A26A5208013A43EA024383
:101CC000E26A43EA0263254A5360254B01221A6007
:101CD000FFF7DEFC0446214B1B6813F0007F06D1A2
:101CE000FFF7D6FC001B0228F5D9032030E00020C6
:101CF0002EE000202CE0012B2CD0184B5B6803F465
:101D00008001E269914201D0012021E003F03F020D
:101D1000216A8A4201D001201AE0616A47F6C07246
:101D20001A408A4201D0012012E003F44032A16A35
:101D30008A4201D001200BE003F07063E26A934213
:101D40000AD0012004E001207047012000E00020BB
:101D500002B070BD0120FBE70020F9E70038024027
:101D600060004742324B9B6803F00C03042B5CD0AD
:101D7000082B01D02F4870472DE9F04B2C4B5A68A7
:101D800002F03F025B6813F4800F2BD0284B5B6896
:101D9000C3F388131E4600275C010025E41A65EB97
:101DA0000705A90141EA9461A001001B61EB05014F
:101DB000CB0043EA5073C400A01943EB07014B0268
:101DC00043EAD0534402204619460023FEF7C4FBE1
:101DD000174B5B68C3F3014301335B00B0FBF3F0C7
:101DE000BDE8F08B124B5B68C3F388131E460027D7
:101DF0005C010025E41A65EB0705A90141EA94613D
:101E0000A001001B61EB0501CB0043EA5073C40045
:101E1000A01943EB07018B0243EA9053840220464A
:101E200019460023FEF798FBD2E70348704700BF2E
:101E3000003802400024F40000127A00002800F06C
:101E40009E8070B50446504B1B6803F00F038B4215
:101E500009D2CBB24C4A1370136803F00F038B42C4
:101E600001D0012070BD236813F0020F17D013F0CA
:101E7000040F04D0454A936843F4E0539360236809
:101E800013F0080F04D0414A936843F46043936011
:101E90003E4A936823F0F003A068034393600D4625
:101EA000236813F0010F32D06368012B21D09A1EF2
:101EB000012A25D9354A126812F0020F61D0334940
:101EC0008A6822F0030213438B60FFF7E1FB0646AA
:101ED0002E4B9B6803F00C036268B3EB820F16D0A5
:101EE000FFF7D6FB801B41F288339842F0D90320DC
:101EF000B8E7264A126812F4003FE0D10120B1E7AA
:101F0000224A126812F0007FD9D10120AAE71E4BA5
:101F10001B6803F00F03AB4209D9EAB21A4B1A70DF
:101F20001B6803F00F03AB4201D001209AE723683E
:101F300013F0040F06D0154A936823F4E053E168C8
:101F40000B439360236813F0080F07D00F4A936880
:101F500023F46043216943EAC1039360FFF702FF62
:101F60000A4B9B68C3F30313094AD35CD840094B5F
:101F70001860094B1868FFF741FB002072E7012049
:101F8000704701206EE700BF003C0240003802406D
:101F9000944800080000002008000020014B186849
:101FA000704700BF0000002008B5FFF7F7FF044BA3
:101FB0009B68C3F38223034AD35CD84008BD00BFAB
:101FC00000380240A448000808B5FFF7E7FF044BBB
:101FD0009B68C3F34233034AD35CD84008BD00BFBB
:101FE00000380240A448000810B4036A046A24F0D0
:101FF00001040462846924F0F00444EA021223F02C
:102000000A030B43826103625DF8044B704710B40E
:10201000036A23F0100303628469036A24F47044A2
:1020200044EA023223F0A00343EA0113826103620F
:102030005DF8044B7047836823F07003194341F047
:10204000070181607047022380F83D300268936881
:1020500003F00703062B03D0136843F0010313605A
:10206000012380F83D3000207047022380F83D3086
:102070000368196A41F21112114208D1196A40F23B
:102080004442114203D11A6822F001021A6001236E
:1020900080F83D30002070470268D36843F00103A8
:1020A000D3600268936803F00703062B03D013681C
:1020B00043F001031360002070470268D36823F0E7
:1020C0000103D3600368196A41F21112114208D169
:1020D000196A40F24442114203D11A6822F0010207
:1020E0001A6000207047704770477047704770470C
:1020F00010B5044603681A6912F0020F11D0DA68AD
:1021000012F0020F0DD06FF002021A610123037763
:1021100003689B6913F0030F70D0FFF7E6FF0023FD
:10212000237723681A6912F0040F12D0DA6812F0CC
:10213000040F0ED06FF004021A6102232377236884
:102140009B6913F4407F5FD02046FFF7CEFF00234A
:10215000237723681A6912F0080F12D0DA6812F098
:10216000080F0ED06FF008021A610423237723684A
:10217000DB6913F0030F4ED02046FFF7B6FF0023B4
:10218000237723681A6912F0100F12D0DA6812F060
:10219000100F0ED06FF010021A6108232377236806
:1021A000DB6913F4407F3DD02046FFF79EFF0023FC
:1021B000237723681A6912F0010F03D0DA6812F04E
:1021C000010F36D123681A6912F0800F03D0DA6844
:1021D00012F0800F34D123681A6912F0400F03D037
:1021E000DA6812F0400F32D123681A6912F0200F1A
:1021F00003D0DA6812F0200F30D110BDFFF774FF62
:102200002046FFF773FF8AE72046FFF76DFF204661
:10221000FFF76CFF9BE72046FFF766FF2046FFF7BE
:1022200065FFACE72046FFF75FFF2046FFF75EFF44
:10223000BDE76FF001021A612046FFF754FFC1E7C6
:102240006FF080021A61204600F02DF9C3E76FF0AD
:1022500040021A612046FFF74AFFC5E76FF02002EF
:102260001A61204600F01EF9C7E700000368254AFE
:1022700090420ED0B0F1804F0BD0A2F57C4290423C
:1022800007D002F58062904203D002F5806290424E
:1022900003D123F070034A6813431A4A90421AD0BC
:1022A000B0F1804F17D0A2F57C42904213D002F5D6
:1022B000806290420FD002F5806290420BD002F50E
:1022C0009A32904207D002F58062904203D002F524
:1022D0008062904203D123F44073CA68134323F011
:1022E00080034A69134303608B68C3620B6883628F
:1022F000044B984202D00123436170470B6903638A
:10230000F9E700BF00000140A8B110B5044690F8FD
:102310003D305BB1022384F83D30211D2068FFF77A
:10232000A5FF012384F83D30002010BD80F83C302B
:10233000FFF7ACF8EEE70120704710B4846824F48E
:102340007F4442EA03230B43234383605DF8044B3D
:10235000704790F83C30012B66D010B5044601233D
:1023600080F83C30022380F83D300268936823F403
:102370007F4323F0770393600B68402B4AD013D937
:10238000602B3DD01ED9702B28D0B3F5005F30D123
:10239000CB684A6889680068FFF7CFFF22689368B6
:1023A00043F48043936024E0102B06D004D9202B03
:1023B00003D0302B01D01CE0DBB919462068FFF7B1
:1023C0003AFE16E0502B14D1CA6849680068FFF73E
:1023D0000BFE50212068FFF72EFE0AE0CB684A680A
:1023E00089680068FFF7A9FF2268936843F07703C4
:1023F0009360012384F83D30002084F83C0010BD38
:10240000CA6849680068FFF702FE60212068FFF78C
:1024100012FEEEE7CA6849680068FFF7E5FD402153
:102420002068FFF708FEE4E70220704790F83C3090
:10243000012B33D030B4012380F83C30022380F8E4
:102440003D3003685C689D6824F070040A6822438C
:102450005A600368124A934212D0B3F1804F0FD0F2
:10246000A2F57C4293420BD002F58062934207D0E2
:1024700002F58062934203D002F59A32934204D16E
:1024800025F080054A6815439D60012380F83D30A2
:10249000002380F83C30184630BC7047022070475B
:1024A00000000140704770472DE9F04B0446026878
:1024B000136923F44053C1680B43136183680269B5
:1024C000134342691343C2691A430168CB6823F47A
:1024D000164323F00C031343CB600268536923F4C3
:1024E000407381690B435361C369B3F5004F3BD01F
:1024F0000368714A934200F0AB8002F58062934218
:1025000000F0A680FFF750FD4FF00009061849EBD8
:10251000090716EB000B47EB090C4FEACC0343EA23
:102520005B734FEACB0293469C4663689A009B0F0D
:1025300010EB0B0049EB0C01FEF70EF85F4DA5FB0D
:1025400000325109642202FB110213013233A5FB50
:1025500003235B0903F0F00202EB011203F00F0307
:10256000216813448B60A4E00368534A934239D036
:1025700002F58062934235D0FFF716FD83464FF097
:10258000000C06184CEB0C0716EB000847EB0C0987
:102590004FEAC90343EA58734FEAC8029046994686
:1025A00062680021921841EB01031BEB08004CEB21
:1025B0000901FDF7D1FF414DA5FB0032510964220D
:1025C00002FB1102D3003233A5FB03235B095A003F
:1025D00002F4F87202EB011203F0070321681344BE
:1025E0008B6066E0FFF7F0FC80464FF000090618AC
:1025F00049EB090716EB000B47EB090C4FEACC033C
:1026000043EA5B734FEACB0293469C466268002123
:10261000921841EB010318EB0B0049EB0C01FDF79D
:102620009BFF264DA5FB00325109642202FB1102DB
:10263000D3003233A5FB03235B095A0002F4F8727E
:1026400002EB011203F00703216813448B6030E0B2
:10265000FFF7BAFC4FF00009061849EB090716EB23
:10266000000B47EB090C4FEACC0343EA5B734FEADC
:10267000CB0293469C4663689A009B0F10EB0B00BD
:1026800049EB0C01FDF768FF0C4DA5FB0032510929
:10269000642202FB110213013233A5FB03235B0901
:1026A00003F0F00202EB011203F00F032168134460
:1026B0008B60BDE8F08B00BF001001401F85EB511F
:1026C00058B310B5044690F839300BB3242384F87E
:1026D00039302268D36823F40053D3602046FFF7D3
:1026E000E3FE2268136923F490431361226853695F
:1026F00023F02A0353612268D36843F40053D36064
:102700000020E063202384F8393084F83A3010BD8B
:1027100080F83830FEF7E2FED8E70120704700006D
:10272000DFF834D0002103E00C4B5B5843500431F8
:102730000B480C4B42189A42F6D30B4A02E0002396
:1027400042F8043B094B9A42F9D3FEF749FF00F0E7
:1027500017F8FEF709FE704700800120484B00087B
:1027600000000020DC010020DC0100209402002099
:10277000FEE70000014B1868704700BF0C00002006
:1027800070B50D4E0D4CA41BA4100025A54209D117
:102790000B4E0C4C02F05EF8A41BA4100025A542C1
:1027A00005D170BD56F8253098470135EEE756F84B
:1027B000253098470135F2E7404B0008404B0008B0
:1027C000404B0008444B000810B5431E0A44914298
:1027D00000D110BD11F8014B03F8014FF7E7024497
:1027E0000346934200D1704703F8011BF9E72DE936
:1027F000FF4755EC104B0D9FDDF830A0002D0E4625
:1028000091461946B8BF22462B4627F02007BBBF8A
:1028100005F100431D4600232D23B8BF1446462F63
:102820000B7004D0452F00D10136022100E00321B6
:1028300003AB019302AB00933246534645EC104B79
:1028400000F0DEFC472F804602D119F0010F26D0A0
:10285000462F08EB060911D198F80030302B0AD129
:102860000022002320462946FEF7BAFA18B9C6F11D
:102870000106CAF80060DAF800309944002200230B
:1028800020462946FEF7ACFA38B93022039B4B4567
:1028900005D2591C03911A70F8E7CDF80C90039BF0
:1028A0000E9AA3EB08034046136004B0BDE8F0871E
:1028B000F7B500290446BABF49422D232B23092925
:1028C00004F8022B437020DD0DF107031F460A2692
:1028D00091FBF6F506FB15113031092D03F8011CAB
:1028E00003F1FF32294609DC3031023B02F8011CBA
:1028F000BB42224604D3101A03B0F0BD1346E7E7EB
:1029000013F8012B04F8012BF2E7302319448370EC
:10291000021DC170EFE700002DE9F04F8DB00C46AD
:10292000DDF8588016461F46054601F021FA036877
:1029300004931846FDF790FF00230A93D8F800305F
:102940000590073323F0070303F1080294F818A059
:10295000D4F800B0C8F80020D3E90023C4E912235A
:10296000D4E9128929F000430793CDF818804FF07D
:10297000FF32A74BDDE90601FEF764FA70BB4FF0AA
:10298000FF32A34BDDE90601FEF73EFA30BB002221
:10299000002340464946FEF72DFA10B12D2384F856
:1029A00043309C4A9C4BBAF1470F8CBF90469846E7
:1029B00003232BF00402236122604FF000090097EB
:1029C00033460BAA2146284600F0E6F9013040F0D4
:1029D0008D804FF0FF300DB0BDE8F08F42464B4682
:1029E00040464946FEF72EFA10B18C4A8C4BDAE786
:1029F00061684B1C4BF480620AA83ED106236360D9
:102A00000023CDE9020309AB009349EC108B0DF1D3
:102A100023032260CDF804A061682846FFF7E7FE93
:102A20000AF0DF03472B804609D1099BD81C02DB43
:102A30006268934247DDAAF1020A5FFA8AFABAF1A4
:102A4000650F099924D80139524604F150000991C3
:102A5000FFF72EFF0A9A1318012A8146236102DC30
:102A60002268D10701D5013323619DF82330002B63
:102A7000A5D02D2384F84330A1E7BAF1670F00F009
:102A80007781BAF1470FBBD10029B9D10123B6E74D
:102A9000BAF1660F19D1002963680CDD216113B901
:102AA0002268D20702D501330B442361099BA36539
:102AB0004FF00009D9E713B92268D00701D50233D6
:102AC000F3E70123F1E74FF0670ADDE909329342AA
:102AD00005DB22682361D107E8D50133E5E7002B48
:102AE000D4BFC3F1020301231344DEE723685A0570
:102AF00007D42369424631462846B84701302BD1D6
:102B000067E7BAF1650F40F2DC8000220023D4E9C8
:102B10001201FEF765F9002833D00123414A3146FE
:102B20002846B84701303FF454AFDDE909239A4203
:102B300002DB2368D8070FD5DDE904233146284698
:102B4000B84701303FF445AF4FF0000804F11A09CF
:102B50000A9B013B434509DC23689B0700F1038185
:102B6000E0680B9B9842B8BF184634E701234A46F9
:102B700031462846B84701303FF42BAF08F1010831
:102B8000E6E7099B002B2BDC0123264A3146284629
:102B9000B84701303FF41DAF099B23B90A9B13B915
:102BA0002368D907D8D5DDE9042331462846B8473C
:102BB00001303FF40EAF4FF0000904F11A0A099BEF
:102BC0005B424B4501DC0A9B94E7012352463146A8
:102BD0002846B84701303FF4FCAE09F10109EEE7A1
:102BE0000A9AA36D9A42A8BF1A46002A914607DDA9
:102BF0001346314642462846B84701303FF4E9AE15
:102C000004F11A034FF0000B29EAE979069315E065
:102C1000FFFFEF7FDC480008D8480008E4480008C0
:102C2000E0480008E84800080123069A3146284693
:102C3000B84701303FF4CDAE0BF1010BD4F858A0EA
:102C4000AAEB09035B45EFDCDDE909239A42D04496
:102C500015DB2368DA0712D40A9B0999A3EB0A0251
:102C6000A3EB010A9245A8BF9246BAF1000F0EDC11
:102C70004FF000082AEAEA7A04F11A0919E0DDE9BE
:102C8000042331462846B8470130E5D1A1E6534632
:102C9000424631462846B8470130E9D199E601233A
:102CA0004A4631462846B84701303FF492AE08F113
:102CB0000108DDE909239B1AA3EB0A034345EEDC77
:102CC0004AE70A9A012A01DCDB073AD5012342468A
:102CD00031462846B84701303FF47BAEDDE9042396
:102CE00031462846B847013008F101083FF471AE7B
:102CF0000A9B002203F1FF3AD4E912010023FEF7F8
:102D00006FF8C8B95346424631462846B8470130A5
:102D10000ED15EE60123524631462846B8470130BF
:102D20003FF457AE08F101080A9B013B4345F1DC33
:102D30004B4604F15002DEE64FF0000804F11A0A97
:102D4000F2E70123DFE701234A4631462846B84728
:102D500001303FF43EAE08F10108E3680B9A9B1A7C
:102D60004345F0DCFCE64FF0000804F11909F4E7F4
:102D700000293FF48BAE0023CDE9020309AB009399
:102D800049EC108B2260CDF804A00DF123032846F6
:102D9000FFF72DFD804648E62DE9F04791461F4696
:102DA0008A680B69DDF820809342B8BF1346C9F8E2
:102DB000003091F8432006460C4612B10133C9F8A1
:102DC00000302368990642BFD9F800300233C9F8B1
:102DD0000030256815F0060507D104F1190AE368EB
:102DE000D9F800209B1AAB4228DC94F843302268C3
:102DF000003318BF012392062DD404F14302394653
:102E00003046C047013020D02368E568D9F800205B
:102E100003F00603042B08BFAD1AA36822690CBF98
:102E200025EAE57500259342C4BF9B1AED184FF0C3
:102E300000091A344D451AD1002008E001235246FA
:102E400039463046C047013003D14FF0FF30BDE86E
:102E5000F0870135C3E7E1185A1C302081F84300A0
:102E6000224494F8451082F843100233C5E7012349
:102E7000224639463046C0470130E6D009F1010903
:102E8000D8E700002DE9F04301F1430C0C46097E20
:102E900085B06E291746064698460C9A00F0B38016
:102EA00022D8632936D00AD8002900F0B9805829E1
:102EB00000F0838004F1420584F8421032E0642976
:102EC00001D06929F6D120681368050603F10401D1
:102ED0002AD51B681160002B03DA2D225B4284F88F
:102EE00043206F480A2239E0732900F09D8008D8FA
:102EF0006F2920D07029DDD1236843F0200323609F
:102F000003E0752917D07829D4D1782384F8453087
:102F1000644855E01368191D1B68116004F14205EF
:102F200084F8423001238CE01B68116010F0400FE0
:102F300018BF1BB2CFE713682568181D106028065C
:102F400001D51B6802E06806FBD51B8854486F2931
:102F500014BF0A220822002184F843106568A56086
:102F6000002DC0F29580216821F004012160002B22
:102F70003DD1002D40F08E806546082A0BD1236894
:102F8000DB0708D5236962689A42DEBF302305F863
:102F9000013C05F1FF35ACEB05032361CDF8008062
:102FA0003B4603AA21463046FFF7F6FE01304DD1DD
:102FB0004FF0FF3005B0BDE8F083394884F8451084
:102FC000136821681D1D1B6815600A060BD5CA070A
:102FD00044BF41F0200121601BB9226822F0200289
:102FE00022601022B7E74D0648BF9BB2EFE7654667
:102FF000B3FBF2F102FB1133C35C05F8013D0B4654
:103000000029F5D1B9E7136825686169181D1060BA
:1030100028061B6801D5196002E06A06FBD51980F5
:10302000002323616546B9E71368191D11601D6807
:10303000626800212846FDF71BFC08B1401B606058
:1030400063682361002384F84330A7E723692A4695
:1030500039463046C0470130AAD023689B0713D4B5
:10306000E068039B9842B8BF1846A3E701234A468D
:1030700039463046C04701309AD00135E368039A9B
:103080009B1AAB42F2DCEBE7002504F11909F5E7E6
:10309000002BACD1037884F8423004F142056CE790
:1030A000EA480008FB4800080EB400B59CB01DAB10
:1030B000029006906FF00041094807910491094978
:1030C00053F8042B05910068019302A901F052FA0C
:1030D000029B00221A701CB05DF804EB03B070472D
:1030E0000C0000200802FFFF2DE9F74F03690C696F
:1030F000A3428046C0F28280013C01F114074FEAEE
:10310000840C00F1140657F8245056F8240006EBFE
:103110000C03013507EB0C090193B0FBF5F595B3F2
:103120004FF0000A3846B646D34650F8042B93B207
:1031300005FB03A34FEA134A9BB2ABEB0303120C4C
:10314000DEF800B005FB02A213FA8BF34FEA124A35
:103150001FFA82FBDEF80020CBEB124202EB234287
:103160009BB243EA024381454FEA224B4EF8043BAF
:10317000DBD256F80C3033B9019B043B9E421A4611
:1031800030D3C8F81040404601F01EF8002825DB77
:10319000013530464FF0000C57F8042BD0F800E012
:1031A00093B2ACEB0303120C13FA8EF3C2EB1E4284
:1031B00002EB23429BB243EA0243B9454FEA224C59
:1031C00040F8043BE8D256F8242006EB84032AB9E1
:1031D000043B9E421A460BD3C8F81040284603B061
:1031E000BDE8F08F1268043B002ACAD1013CC5E754
:1031F0001268043B002AEFD1013CEAE70020EEE729
:103200002DE9F04F57EC106B97B0456A06910446D4
:103210000B921293DDF88080CDE900673DB9102054
:1032200000F0B4FD6062C0E901550560C560636AE5
:10323000196851B15A684A60012393408B60204657
:1032400000F0E0FD636A00221A603B1EBBBF23F062
:103250000043019300230122ACBFC8F80030C8F836
:103260000020AF4BDDF8048033EA080314D1129A32
:1032700042F20F731360009B23B9C8F313000028B8
:1032800000F04285219BDFF8ACB2002B00F04485B2
:103290000BF1030300F03EBDDDE9006700220023CF
:1032A00030463946FDF79CFD814668B1129A0123EC
:1032B0001360219B002B00F024859A4B219A03F187
:1032C000FF3B136000F028BD14AA15A947EC106B52
:1032D000204600F0F0FFC8F30A550490002D7CD082
:1032E000C7F3130343F07F5BB2464BF4401BA5F2D8
:1032F000FF35CDF84C9000228B4B50465946FCF7D9
:1033000073FF81A3D3E90023FDF702FB80A3D3E978
:103310000023FCF76BFF064628460F46FDF7B2F880
:103320007DA3D3E90023FDF7F3FA02460B463046AE
:103330003946FCF75BFF06460F46FDF799FD002274
:103340008246002330463946FDF754FD48B15046C9
:10335000FDF798F832463B46FDF742FD08B90AF101
:10336000FF3ABAF1160F59D8704901EBCA01DDE9ED
:103370000023D1E90001FDF75BFD002850D00AF1E0
:10338000FF3A00230F93149B5D1BB5F1010849BF61
:10339000C5F10103002305934FF0000858BF0593C2
:1033A000BAF1000F3EDB0023D044CDF838A00793DC
:1033B000069B092B00F29080052BC4BF043B0693AB
:1033C000069BA3F10203CCBF00250125032B00F2CD
:1033D0008F80DFE803F07D7F3171DDE914531D44F8
:1033E00005F23240202813DDC0F14000009B08FAAE
:1033F00000F805F2124023FA00F048EA0000FDF759
:1034000031F801238246A1F1F87B013D139372E765
:10341000009BC0F1200003FA00F0F0E70123B1E7C0
:103420000F90B0E7059BA3EB0A030593CAF10003D5
:10343000079300230E93BBE701230A930B9B002BFA
:1034400059DD02939946666A00227260042202F1F5
:1034500014009842716853D9204600F09FFC636ABB
:103460003060B9F10E0FD3F800B000F2E680002D05
:1034700000F0E3809DED007BBAF1000F8DED107B35
:1034800074DD2A4A0AF00F0302EBC30393ED007BBD
:103490004FEA2A16F0068DED087B65D5244BDDE951
:1034A0001001D3E90823FDF75DFBCDE9000106F02B
:1034B0000F0603251E4F4CE001230A930B9B534438
:1034C00003F1010902934B46012BB8BF0123BAE770
:1034D0000023B2E70023F0E70125002306930A95B5
:1034E0004FF0FF3302939946002212230B92AAE772
:1034F00001230A93F4E70123029399461A46F5E75C
:10350000013171605200A2E761436F63A787D23F28
:10351000B3C8608B288AC63FFB799F501344D33FC2
:103520000000F07FE94800080000F83F4849000823
:103530002049000815490008F10708D5DDE9080110
:10354000D7E90023FDF7E4F9CDE90801013576104C
:103550000837002EF0D1DDE90823DDE90001FDF791
:1035600001FBCDE900011AE00225A3E700F0A080ED
:10357000CAF100069F4BA04F06F00F0203EBC203F7
:10358000D3E90023DDE91001FDF7C2F9CDE900011F
:10359000361100230225002E7FD1002BE1D10F9B95
:1035A000002B00F08780DDE900670022934B304656
:1035B0003946FDF71FFC00287CD0B9F1000F79D007
:1035C000029B002B35DD0AF1FF33089339460022B8
:1035D0008B4B3046FDF79CF9CDE90001029F013588
:1035E0002846FCF74FFFDDE90023FDF791F90022A3
:1035F000844BFCF7FBFD0546A1F15076002F5DD111
:103600000022814BDDE90001FCF7EEFD2A4633463E
:10361000CDE90001FDF70CFC002840F088822A4625
:1036200006F10043DDE90001FDF7E4FB002840F06E
:103630007C82DDE91023CDE90023159B002BC0F22D
:103640005081BAF10E0F00F34C816A4B03EBCA03B1
:1036500093ED007B0B9B002B8DED027B80F2D880DD
:10366000B9F1000F00F3D48040F05E820022664B77
:1036700051EC170BFDF74CF9DDE90023FDF7CEFB0C
:103680004F464E46002840F0348231230BF10105AD
:103690008BF800300AF1010A2FE2F20705D5D7E9CD
:1036A0000023FDF735F9013501237610083772E75D
:1036B000022574E7CDF820A04F4691E74D4B03EB70
:1036C000C70353E902010A9B002B47D002460B4671
:1036D00000204E49FDF746FA2A463346FCF784FDA2
:1036E000CDE90C015D46DDE90001FDF7C1FB0646B1
:1036F000FCF7C8FE02460B46DDE90001FCF774FD4D
:10370000303605F8016BDDE90C23CDE90001FDF74A
:1037100071FB002863D1DDE9002300203749FCF765
:1037200063FDDDE90C23FDF765FB002840F0B78061
:10373000A5EB0B039F427FF77CAF0022304BDDE906
:103740000C01FDF7E5F80022CDE90C012C4BDDE979
:103750000001FDF7DDF8CDE90001C4E72A46334654
:10376000FDF7D6F8CDE90C010BEB07055E46DDE968
:103770000001FDF77DFB0746FCF784FE303702466B
:103780000B46DDE90001FCF72FFD06F8017BAE4298
:10379000CDE900014FF0000226D11C4BDDE90C0100
:1037A000FCF724FD02460B46DDE90001FDF740FB76
:1037B000002874D1DDE90C2300201449FCF714FD26
:1037C00002460B46DDE90001FDF714FB00283FF43B
:1037D00030AF15F8013C302B05F1FF3202D0DDF897
:1037E00020A04AE01546F4E7054BFDF791F8CDE936
:1037F0000001BCE748490008204900080000F03FEC
:103800000000244000001C40000014400000E03F85
:10381000DDE900675D46DDE9022330463946FDF704
:10382000A1F9FDF725FB8046FCF72CFEDDE902231C
:10383000FDF76EF802460B463046394608F1300671
:10384000FCF7D2FC05F8016BA5EB0B06B14502466F
:103850000B4639D1FCF7CAFCDDE9022306460F46C8
:10386000FDF7E6FAC8B9DDE9022330463946FDF72F
:10387000B7FA10B118F0010F0FD10499204600F0EB
:10388000C1FA0023129A2B700AF101031360219BE5
:10389000002B00F041821D603EE2CDF820A015F81B
:1038A000012C392A05F1FF3308D19B450AD1089B29
:1038B0000133089330238BF800305B461A780132CD
:1038C0001A708CE71D46EAE700229B4BFDF720F8B3
:1038D0000022002306460F46FDF782FA00289AD000
:1038E000CBE70A9A002A00F08B80069A012A6EDC48
:1038F000139A002A67D003F23343079F059D059A68
:1039000001211A4420460592984400F01BFB06460C
:10391000002D0CDDB8F1000F09DD4545059A2B4659
:10392000A8BF4346D21A0592ED1AA8EB0308079BDD
:10393000EBB10A9B002B67D08FB131463A46204647
:1039400000F0A0FB049A01460646204600F003FB67
:1039500004990890204600F055FA089B0493079BB1
:10396000DA1B04D00499204600F08CFB049001215E
:10397000204600F0E7FA0E9B0746002B00F0D081AE
:103980001A460146204600F07DFB069B012B0746A8
:1039900040DC009B002B39D1019BC3F31303002BA8
:1039A00036D1019B23F000431B0D1B052BB1059B5A
:1039B0000133059308F10108012307930E9B002BA7
:1039C0002AD1012030E0149BC3F1360395E7079B11
:1039D00009F1FF37BB42BFBF079B0797FA1A0E9B3F
:1039E000BBBF9B180E93DF1B0027B9F1000FB5BFBB
:1039F000059B059DA3EB09054B46B8BF00237EE759
:103A0000079F059D0A9E83E7079AABE70023D4E74B
:103A1000009BD2E7002307933B6907EB83031869F8
:103A200000F042FAC0F12000404410F01F0047D0DF
:103A3000C0F12003042B3BDD059BC0F11C000344B7
:103A4000059305448044059B002B05DD1A46049927
:103A5000204600F065FB0490B8F1000F05DD394603
:103A60004246204600F05CFB07460F9B53B33946A5
:103A7000049800F0A9FB002824DA00230A22049904
:103A8000204600F0D6F90A9B04900AF1FF3A002B79
:103A900000F04D81002331460A22204600F0C9F98A
:103AA000029B002B06464FDC069B022B4CDD11E0EF
:103AB000C9D0059A1C331A4405921D449844C2E7A4
:103AC0000346F6E7B9F1000F38DC069B022B35DD23
:103AD000CDF80890029B63B939460522204600F0D4
:103AE000A8F901460746049800F06EFB00283FF74E
:103AF000CCAD0B9B5D466FEA030A4FF000093946D7
:103B0000204600F07FF9002E3FF4B7AEB9F1000F68
:103B100005D0B14503D04946204600F073F931463F
:103B2000204600F06FF9A8E600273E46E1E7DDF801
:103B300020A03E46A9E500BF000024400A9BCDF826
:103B40000890002B00F0FA80002D05DD31462A4652
:103B5000204600F0E5FA0646079B002B4CD0716822
:103B6000204600F01BF9326902320546920006F148
:103B70000C010C30FEF728FE01222946204600F0F9
:103B8000CFFA009BCDF814B003F00103B1460793C0
:103B9000064639460498FFF7A7FA4946054600F15C
:103BA0003008049800F010FB324600903946204659
:103BB00000F024FBC368024603BB0146089004984A
:103BC00000F002FB089A034611462046089300F0D5
:103BD00019F9089BA3B9069A92B9079A82B9B8F164
:103BE000390F29D0009B002B01DD05F13108059B21
:103BF0005D1C83F8008082E73046C2E70123E3E7DB
:103C0000009A002A04DB25D1069A1ABB079A0ABB40
:103C1000002BECDD01220499204600F081FA3946A0
:103C2000049000F0D1FA002803DCE0D118F0010F75
:103C3000DDD0B8F1390FD8D1059B059A5D1C392329
:103C4000137015F8013C392B05F1FF324FD00133C9
:103C5000137054E7059A002B02F1010506DDB8F157
:103C6000390FE9D008F10108059BC2E7029A05F86F
:103C7000018CA5EB0B03934221D000230A22049967
:103C8000204600F0D6F8B14504904FF000034FF005
:103C90000A024946204605D100F0CBF88146064687
:103CA000059576E700F0C5F83146814600230A22E3
:103CB000204600F0BEF80646F2E74FF00009012268
:103CC0000499204600F02CFA3946049000F07CFA62
:103CD0000028B6DC02D118F0010FB2D115F8013C72
:103CE000302B05F1FF327FF40AAF1546F6E7934516
:103CF00005D131230AF1010A8BF80030FFE61546A1
:103D00009FE7DFF864B007E0219BDFF860B01BB1EC
:103D10000BF10803219A1360584617B0BDE8F08FE5
:103D2000069B012B7FF735AE0E9B079349E6029B5E
:103D3000002B03DC069B022B3FF7CCAE5D463946D9
:103D40000498FFF7D1F900F1300805F8018B029AC9
:103D5000A5EB0B039A42B0DD00230A22049920460A
:103D600000F067F80490EAE7E84800080C4900080A
:103D7000044B1B68186A044B002808BF1846F03033
:103D8000704700BF0C00002070000020024B01466D
:103D9000186800F03BBB00BF0C00002070B5456AFE
:103DA00004460E463DB91020FFF7F0FF6062C0E9FF
:103DB00001550560C560656AEB6883B1636ADB68BD
:103DC00053F82600B8B9012101FA06F56A1D9200E0
:103DD000204600F0BFFA60B1C0E901650EE0212283
:103DE0000421204600F0B6FA636AE860DB68002B25
:103DF000E4D1002070BD026843F826200023C0E90A
:103E00000333F7E770B5446A06460D463CB9102007
:103E1000FFF7BCFF7062C0E901440460C4603DB1BB
:103E2000736A6A68DB6853F82210296043F82250ED
:103E300070BD2DE9F0410D691F4606460C4601F1A3
:103E4000140C0023DCF8000081B202FB01710F0C9E
:103E5000000C02FB007089B2013301EB00419D426E
:103E60004FEA10474CF8041BECDCD7B1A368AB4217
:103E700012DC616830460131FFF790FF226902329F
:103E800004F10C01804692000C30FEF79DFC2146A7
:103E90003046FFF7B7FF444604EB850301355F6109
:103EA00025612046BDE8F081020C12040346B2B938
:103EB0000304102013F07F4F04BF1B02083013F0DF
:103EC000704F04BF1B01043013F0404F04BF9B0030
:103ED0000230002B06DB5B0003D501307047002069
:103EE000E8E720207047036813F0070201460BD073
:103EF000DA0723D4980749BF5B089B0801200B60B1
:103F00005CBF0B600220704798B2A8B91B0C102050
:103F100013F0FF0F04BF1B0A08301A0704BF1B0968
:103F200004309A0704BF9B080230DA0702D45B080A
:103F300006D001300B6070471046E9E7002070475B
:103F40002020704710B50C460121FFF727FF012202
:103F50004461026110BD2DE9F74F14460A692369D7
:103F60009A42B8BF0B468846BCBFA0461C46D8F84C
:103F70001070D4F81090D8F80830D8F8041007EB77
:103F80000906B342B8BF0131FFF708FF00F114057D
:103F900005EB860E2B460022734516D304F114025E
:103FA00008F1140102EB890301EB87070093009BE2
:103FB000019293420CD8002E03DD5EF8043D002BE5
:103FC0005DD0066103B0BDE8F08F43F8042BE3E752
:103FD000B2F800B0BBF1000F23D08946AC464FF0D9
:103FE000000859F8044BDCF800A0A3B21FFA8AFAC3
:103FF0000BFB03A34FEA144ADCF8004043444FEAAA
:1040000014480BFB0A8404EB1344E2469BB243EAD8
:1040100004434F454FEA14484AF8043B2BD8CCF8E8
:104020000480019BB3F802A00432BAF1000F20D043
:104030002B688946A8464FF0000BB9F800C0B8F8C5
:1040400002400AFB0C445C44C4469BB243EA04436E
:104050004CF8043B59F8043BB8F804B01B0C0AFBBD
:1040600003B303EB14434F454FEA134B05D8C8F88D
:10407000043004359BE7D446B3E7E046DDE7013E74
:1040800099E700002DE9F843154612F003020646B1
:104090000F4607D0013A214C002354F82220FFF7A5
:1040A000C8FE0746AD1035D0746A3CB91020FFF742
:1040B0006DFE7062C0E901440460C460D6F82480DB
:1040C000D8F808404CB940F271213046FFF73AFF6A
:1040D0000023C8F80800044603604FF00008EB070F
:1040E0000AD5394622463046FFF735FF3946814624
:1040F0003046FFF787FE4F466D100BD0206838B969
:10410000224621463046FFF726FF2060C0F8008097
:104110000446E4E73846BDE8F88300BF104A0008CB
:104120002DE9F0470C464FEA621A236949680AEB09
:104130000309A3680746164609F10105AB4232DBC5
:104140003846FFF72BFE0023804600F114011A4683
:1041500053452BDB20692AEAEA7A04F1140316F0AE
:104160001F0201EB8A0103EB800C25D0C2F1200E67
:1041700000201E688A46964030434AF8040B53F8E4
:10418000040B9C4520FA0EF014D8486008B109F1E0
:104190000205013D3846C8F810502146FFF732FEAF
:1041A0004046BDE8F08701315B00C7E741F82320B6
:1041B0000133CDE75146DCE7043953F8042B41F8CD
:1041C000042F9C45F9D8E4E703690A699B1A30B5C6
:1041D0000CD19200143014318418114454F8045D49
:1041E00051F8042D954203D005D30123184630BD64
:1041F000A042F3D3FAE74FF0FF33F7E72DE9F0479A
:104200000D460746114628461446FFF7DDFF061EF9
:1042100008D131463846FFF7C1FD0123C0E9043615
:10422000BDE8F087A4BF23462C4638466168A6BF88
:104230001D4600260126FFF7B1FD2B69C6602669E1
:1042400005F1140904F1140202EB860709EB830857
:1042500000F114054FF0000E52F804AB59F8044B6E
:104260001EFA8AF1A3B2C91A230CC3EB1A4303EB5B
:10427000214389B24FEA234EC84541EA034394469D
:1042800045F8043BE8D8BC4504D355F8043D83B158
:104290000661C5E75CF8041B1EFA81F31A1402EBF1
:1042A00011429BB243EA02434FEA224E45F8043BD7
:1042B000E9E7013EE9E72DE9F7430E46012159EC14
:1042C000108B1546FFF76AFDC9F30A540746C9F378
:1042D000130334BB0193B8F1000327D002A840F8C0
:1042E000083DFFF700FE0099F0B1019AC0F12003EC
:1042F00002FA03F30B43C2407B610192019BBB6155
:10430000002B14BF022101213961C4B1A4F233444E
:1043100004443460C0F135002860384603B0BDE87D
:10432000F08343F48013D5E77961E7E701A8FFF74D
:10433000DAFD019B7B61012139612030E5E707EB64
:104340008103A0F2324030601869FFF7ADFDC0EB89
:104350004110E1E738B502FB01F4214600F056F8C0
:10436000054618B122460021FEF739FA284638BD25
:1043700038B50546002945D051F8043C0C1F002BE8
:10438000B8BFE41800F029FA1F4A1368104633B981
:10439000636014602846BDE8384000F01FBAA342AD
:1043A0000CD921686218934204BF1A685B68636085
:1043B00004BF521822600460ECE713465A680AB141
:1043C000A242FAD919685818A0420BD120680144BA
:1043D000581882421960DDD1106852685A60014451
:1043E0001960D7E702D90C232B60D3E72068211886
:1043F0008A4204BF11685268626004BF09182160D4
:104400005C60C7E738BD00BF0402002070B5CD1C5A
:1044100025F0030508350C2D38BF0C25002D064668
:1044200001DBA94203D90C233360002070BD00F0EA
:10443000D4F9214A1468214691B9204C23681BB94C
:10444000304600F08FF920602946304600F08AF9A6
:10445000431C24D10C233360304600F0BFF9E4E75D
:104460000B685B1B18D40B2B0FD90B60CD50CC18ED
:10447000304600F0B3F904F10B00231D20F00700D3
:10448000C31AD3D05A42E250D0E78C424B6816BFD1
:10449000636013600C46EBE70C464968CCE7C41C2C
:1044A00024F00304A04205D0211A304600F05AF946
:1044B0000130CFD02560DBE7040200200802002095
:1044C0002DE9F0478E689E4282460C4690469946FA
:1044D00037D88A8912F4906F31D0256809696F1A2C
:1044E0006569022305EB450595FBF3F509F1010329
:1044F0003B449D4238BF1D46530530D52946FFF742
:1045000085FF064650B90C23CAF80030A38943F052
:104510004003A3814FF0FF30BDE8F0873A462169A0
:10452000FEF752F9A38923F4906343F08003A3813B
:10453000266165613E44ED1B2660A5604E464E45F2
:1045400000D94E4632464146206800F02DF9A36856
:104550009B1BA36023681E4426600020DCE72A46DC
:1045600000F03DF906460028E2D121695046FFF7E8
:10457000FFFEC8E72DE9F04F1D468B891F069DB051
:1045800080460C4616460FD50B696BB94021FFF7E4
:104590003DFF2060206128B90C23C8F800304FF09F
:1045A000FF30C8E0402363610023099320238DF886
:1045B000293030238DF82A3003954FF0010B374610
:1045C0003D4615F8013B0BB1252B3ED1B7EB060A52
:1045D0000BD05346324621464046FFF771FF01306B
:1045E00000F0A480099B534409933B78002B00F012
:1045F0009D8000234FF0FF32CDE9052304930793FC
:104600008DF853301A932F46052217F8011B504896
:10461000FCF72EF9049BD0B9D90644BF20228DF8AF
:1046200053201A0744BF2B228DF853202A782A2AB8
:1046300015D0079A2F4600200A25394611F8013B6C
:10464000303B092B4DD9B8B10FE02F46B8E7404AAF
:10465000801A0BFA00F0184304903D46D3E7039A02
:10466000111D12680391002A01DB079204E05242F7
:1046700043F00203079204933B782E2B0CD17B78F6
:104680002A2B33D1039B1A1D1B680392002BB8BF42
:104690004FF0FF33023705932E4D39780322284619
:1046A000FCF7E6F838B14023401B03FA00F0049B06
:1046B000034301370493397827488DF828100622E0
:1046C0007E1CFCF7D5F8002838D0244B13BB039B85
:1046D000073323F0070308330393099B4B440993E3
:1046E0006DE705FB023201200F46A6E700230137E4
:1046F000059319460A25384610F8012B303A092A45
:1047000003D9002BC8D00591C6E705FB0121012381
:104710000746F0E703AB00932246114B04A940463D
:10472000FEF7FAF8B0F1FF3F8146D6D1A3895B06C8
:104730003FF535AF09981DB0BDE8F08F03AB00938E
:104740002246074B04A94046FEF79CFBEAE700BF60
:104750001C4A0008224A0008264A000819290008B5
:10476000C144000838B5064C0023054608462360BE
:10477000FCF718FF431C02D1236803B12B6038BD3E
:104780009002002082B001B901A942B14BB1137867
:104790000B601278101C18BF012002B07047104641
:1047A000FBE76FF00100F8E7884210B501EB020368
:1047B00007D8421E99420AD011F8014B02F8014F66
:1047C000F8E78342F5D98118D21AD34200D110BD3F
:1047D00013F8014D01F8014DF7E770477047F8B540
:1047E000074614460E4621B91146BDE8F840FFF7CA
:1047F0000DBE22B9FFF7BCFD25462846F8BD00F0E6
:1048000021F8A0420FD221463846FFF7FFFD0546AA
:104810000028F2D031462246FDF7D6FF3146384611
:10482000FFF7A6FDE9E73546E7E749B1FF2A85BF6F
:104830008A2303600A704FF0FF3098BF0120704751
:104840000846704751F8043C181F002BBCBF0B589A
:10485000C0187047F8B500BFF8BC08BC9E4670474A
:0C486000F8B500BFF8BC08BC9E467047CD
:104870000040145400020103000002400004024002
:104880000004024000040240000100041000200067
:104890000701000000000000000000000102030406
:1048A00006070809000000000102030425302E332A
:1048B0006600000025640000456C6170736564202B
:1048C00074696D652E2E2E20000000002073656334
:1048D0006F6E647300000000494E4600696E66000A
:1048E0004E414E006E616E0030003031323334354F
:1048F000363738394142434445460030313233344B
:10490000353637383961626364656600496E6669B9
:104910006E697479004E614E0000000000000000D6
:104920000080E03779C34143176E05B5B5B89346AB
:10493000F5F93FE9034F384D321D30F94877825A77
:104940003CBF737FDD4F1575000000000000F03F95
:10495000000000000000244000000000000059405A
:104960000000000000408F40000000000088C340AD
:1049700000000000006AF8400000000080842E4122
:1049800000000000D01263410000000084D797416E
:104990000000000065CDCD41000000205FA0024274
:1049A000000000E876483742000000A2941A6D42E9
:1049B000000040E59C30A2420000901EC4BCD642DC
:1049C00000003426F56B0C430080E03779C3414387
:1049D00000A0D8855734764300C84E676DC1AB43FD
:1049E000003D9160E458E143408CB5781DAF15441B
:1049F00050EFE2D6E41A4B4492D54D06CFF08044F6
:104A0000F64AE1C7022DB544B49DD9794378EA440A
:104A100005000000190000007D000000232D302B50
:104A20002000686C4C0065666745464700430050AF
:104A30004F534958002E0000202020202020202005
:104A4000202828282828202020202020202020203E
:104A5000202020202020202088101010101010105E
:104A600010101010101010100404040404040404A6
:104A70000404101010101010104141414141410137
:104A80000101010101010101010101010101010116
:104A90000101011010101010104242424242420225
:104AA00002020202020202020202020202020202E6
:104AB0000202021010101020000000000000000090
:104AC00000000000000000000000000000000000E6
:104AD00000000000000000000000000000000000D6
:104AE00000000000000000000000000000000000C6
:104AF00000000000000000000000000000000000B6
:104B000000000000000000000000000000000000A5
:104B10000000000000000000000000000000000095
:104B20000000000000000000000000000000000085
:084B300000000000000000007D
:084B380050BAFF7F01000000EC
:044B4000C5010008A3
:044B4400A1010008C3
:104B48000024F40001000000100000001000002004
:104B5800000000000000000000000000000000004D
:104B6800000000000000000000000000000000003D
:104B7800000000000000000000000000000000002D
:104B8800000000000000000000000000000000001D
:104B9800000000000000000000000000000000000D
:104BA80000000000000000000000000000000000FD
:104BB80043000000000000000000000000000000AA
:104BC80000000000000000000000000000000000DD
:104BD800430000000000000000000000000000008A
:104BE80000000000000000000000000000000000BD
:104BF800430000000000000000000000000000006A
:104C0800000000000000000000000000000000009C
:104C18004300000000000000000000000000000049
:104C2800000000000000000000000000000000007C
:104C38004300000000000000000000000000000029
:104C4800000000000000000000000000000000005C
:104C58004300000000000000000000000000000009
:104C6800000000000000000000000000000000003C
:104C780043000000000000000000000000000000E9
:104C8800000000000000000000000000000000001C
:104C98002B4800088547000800000000374A000834
:104CA800354A0008214A0008214A0008214A00081C
:104CB800214A0008214A0008214A0008214A000820
:104CC800214A0008214A0008FFFFFFFFFFFFFFFFFE
:104CD800FFFFFFFFFFFF0000010041534349490068
:104CE80000000000000000000000000000000000BC
:104CF8000000000000000000000041534349490043
:104D0800000000000000000000000000000000009B
:0C4D18000000000000000000000000008F
:0400000508002721A7
:00000001FF
